{
  "contractName": "Hodl",
  "abi": [
    {
      "inputs": [],
      "payable": false,
      "stateMutability": "nonpayable",
      "type": "constructor"
    },
    {
      "constant": false,
      "inputs": [
        {
          "internalType": "uint256",
          "name": "lockDurationDays",
          "type": "uint256"
        }
      ],
      "name": "lockFunds",
      "outputs": [],
      "payable": true,
      "stateMutability": "payable",
      "type": "function"
    },
    {
      "constant": false,
      "inputs": [],
      "name": "unlockFunds",
      "outputs": [],
      "payable": false,
      "stateMutability": "nonpayable",
      "type": "function"
    },
    {
      "constant": false,
      "inputs": [
        {
          "internalType": "address",
          "name": "heritageAddress",
          "type": "address"
        }
      ],
      "name": "registerHeritageAddress",
      "outputs": [],
      "payable": false,
      "stateMutability": "nonpayable",
      "type": "function"
    },
    {
      "constant": false,
      "inputs": [
        {
          "internalType": "address",
          "name": "heritageAddress",
          "type": "address"
        }
      ],
      "name": "ulockFundsWith",
      "outputs": [],
      "payable": false,
      "stateMutability": "nonpayable",
      "type": "function"
    }
  ],
  "bytecode": "0x608060405234801561001057600080fd5b5061016b806100206000396000f3fe60806040526004361061003f5760003560e01c80635b8bb91f146100445780638c8f95fb14610095578063b4d1c485146100c3578063cd0d638e146100da575b600080fd5b34801561005057600080fd5b506100936004803603602081101561006757600080fd5b81019080803573ffffffffffffffffffffffffffffffffffffffff16906020019092919050505061012b565b005b6100c1600480360360208110156100ab57600080fd5b810190808035906020019092919050505061012e565b005b3480156100cf57600080fd5b506100d8610131565b005b3480156100e657600080fd5b50610129600480360360208110156100fd57600080fd5b81019080803573ffffffffffffffffffffffffffffffffffffffff169060200190929190505050610133565b005b50565b50565b565b5056fea265627a7a723158207dfee94990a5687dd17c7708e565237908a1445528342543f3853f89088cec3364736f6c63430005100032",
  "source": "// SPDX-License-Identifier: MIT\npragma solidity >=0.4.22 <0.9.0;\n\ncontract Hodl {\n  constructor() public {\n  }\n\n  function lockFunds(uint lockDurationDays) public payable {\n    //\n  }\n\n  function unlockFunds() public {\n    //\n  }\n\n  function registerHeritageAddress(address heritageAddress) public {\n    //\n  }\n\n  function ulockFundsWith(address heritageAddress) public {\n    //  \n  }\n\n  function calculatePenalty() private returns(uint) {\n    // \n  }\n\n}\n",
  "sourcePath": "/home/szilard/git/github.com/kovszilard/blockchain-developer-bootcamp-final-project/contracts/Hodl.sol",
  "compiler": {
    "name": "solc",
    "version": "0.5.16+commit.9c3226ce.Emscripten.clang"
  },
  "schemaVersion": "3.4.3",
  "updatedAt": "2021-11-30T22:32:03.736Z",
  "devdoc": {
    "methods": {}
  },
  "userdoc": {
    "methods": {}
  }
}